:020000040800F2
:10000000280E0020A5010008AD010008AF0100087E
:10001000B1010008B3010008B501000800000000AC
:1000200000000000000000000000000001010008C6
:10003000B90100080000000045010008B11C0008DB
:10004000BF010008BF010008BF010008BF01000890
:10005000BF010008BF010008BF010008BF01000880
:10006000BF010008BF010008BF0100088D020008A1
:10007000BF010008BF010008BF010008BF01000860
:10008000BF010008BF01000835020008BF010008D9
:10009000BF010008BF010008BF010008BF01000840
:1000A000BF010008691D0008BF010008BF0100086A
:1000B000BF010008BF010008BF010008BF01000820
:1000C000BF010008BF010008BF010008BF01000810
:1000D000BF010008BF010008BF010008BF01000800
:1000E000BF010008BF010008BF010008DFF80CD005
:1000F00000F08EF800480047891F0008280E0020F5
:10010000204B19680868B0E8F00F80F30988BFF346
:100110006F8F4FF0000080F311884EF00D0E704786
:100120000000000006480068006880F3088862B696
:1001300061B6BFF34F8FBFF36F8F00DF00BF00BF0B
:1001400008ED00E0EFF30980BFF36F8F0D4B1A68E5
:1001500020E9F00F106008B54FF0500080F31188CF
:1001600002F0D0F94FF0000080F31188BDE808409C
:1001700019680868B0E8F00F80F30988BFF36F8F43
:10018000704700BF48000020EFF311804FF050018E
:1001900081F31188704780F311887047EFF3058071
:1001A000704700000648804706480047FEE7FEE724
:1001B000FEE7FEE7FEE7FEE7FEE7FEE7FEE7FEE717
:1001C000211D0008ED00000840EA01039B0703D051
:1001D00009E008C9121F08C0042AFAD203E011F886
:1001E000013B00F8013B521EF9D27047D2B201E048
:1001F00000F8012B491EFBD270470022F6E710B52C
:1002000013460A4604461946FFF7F0FF204610BD84
:10021000064C074D06E0E06840F0010394E8070053
:1002200098471034AC42F6D3FFF764FF70290008FA
:1002300090290008014800F0E4B800008400002084
:1002400070B5044600688168C943C9071BD181683D
:1002500021F00101816000F065FC05460EE000BF61
:1002600000F060FC401B022808D9042084F8290013
:10027000E06A40F00100E062012070BD2068806803
:10028000C043C007ECD0002070BD0000014800F062
:10029000F3B900003001002070470000F8B50025D8
:1002A000009590F82820AE46012A1ED0012280F841
:1002B00028204A681F244FF47873072A17D206684B
:1002C000776B93FAA3FC521EBCFA8CFC02FB0CFC6D
:1002D00004FA0CF4A74393FAA3F3B3FA83F30C687C
:1002E0005A439440274377632DE00220F8BD066807
:1002F0000D2A14D2376B93FAA3FCD21FBCFA8CFCE4
:1003000002FB0CFC04FA0CF4A74393FAA3F3B3FA30
:1003100083F30C685A4394402743376313E0F76A2A
:1003200093FAA3FC0D3ABCFA8CFC02FB0CFC04FA19
:100330000CF4A74393FAA3F3B3FA83F30C685A437C
:1003400094402743F7620A683823072406680A2A7C
:1003500014D3F76893FAA3FC0A3ABCFA8CFC02FBAC
:100360000CFC04FA0CF4A74393FAA3F3B3FA83F357
:100370008C685A4394402743F76012E0376993FA38
:10038000A3FCBCFA8CFC02FB0CFC04FA0CF4A743A3
:1003900093FAA3F3B3FA83F38C685A439440274348
:1003A00037610A68102A01D0112A1FD1114B026847
:1003B0009A4217D193681B0218D4936843F4000340
:1003C00093600968102911D10B490C4A0968B1FBE7
:1003D000F2F101EB8101490000E0491E0091002982
:1003E000FBD103E0042180F82910012580F828E0E2
:1003F0002846F8BD002401400000002040420F00C4
:10040000704770B50446006841684FF035058906AD
:1004100028D50168890725D594F8291004290AD020
:1004200094F82910352906D094F82910252908D0E8
:10043000152184F829108168C1F34241072903D0AE
:1004400008E084F82950F6E7E16819B9416821F01D
:10045000200141602046FFF7D3FF2068016821F0AA
:100460001201016020684168090630D5016849071A
:100470002DD594F8291004290AD094F8291035298B
:1004800006D094F82910152910D0252184F82910B8
:100490008168C1F3023107290DD0416849050ED4A6
:1004A0008168C1F34241072903D008E084F829504C
:1004B000EEE7E16819B9416821F08001416020460A
:1004C000FFF7EAFE2068016821F00C010160206856
:1004D000416849060DD50068C0070AD0062084F897
:1004E0002900204600F08AF82068016821F0010107
:1004F000016070BD2DE9F04104004FF0000504D00B
:1005000094F82900002618B107E00120BDE8F08129
:1005100084F82860204600F073F82046FFF790FE2C
:1005200004270246012861D0022084F82900E369EB
:10053000616890FAA0F01943E368B0FA80F003FA1A
:1005400000F00143A0684FF4807C604508D001288A
:1005500006D00020D4F814E0BEF1010F02D00FE065
:100560006046F7E763B9A3694FF4604E9EFAAEFEAA
:100570005B1EBEFA8EFE03FA0EF3034343F40060E3
:100580002368D3F804E02EF4694E4EEA000EC3F857
:1005900004E020688368DFF85CE003EA0E030B43A5
:1005A0008360A068604508D125694FF4700090FA17
:1005B000A0F06D1EB0FA80F085402068C36A23F475
:1005C00070032B43C362206880680B4B184088423D
:1005D00004D1E662012084F8290009E084F829703A
:1005E000E06A40F00100E062012201E084F8297035
:1005F00010468BE7FDF7E1FFFE0F1FFF704700007D
:1006000030B505460068174985B0884228D116489C
:10061000816941F4007181618069694600F400706C
:100620000490FF20009003200190104800F08EF904
:10063000104C0F480021C4E90001A160E160216174
:100640006161A1612046E16100F04CF96C62002219
:1006500005211220656200F0B7FA122000F0A8FA16
:1006600005B030BD002401400010024000080140E8
:1006700008000240300100202DE9F05FDFF86082C1
:100680000446D8F80020DFF858B2954D944E944FA8
:100690000068DFF84C92DFF848A20BF1080B1C351C
:1006A000303644374FF400614FF4004C4FF4002EC5
:1006B00009F158090AF16C0A584501D1082316E0DE
:1006C000A84201D1802312E0B04201D10B460EE0D6
:1006D000B84201D163460AE0484501D1734606E0BD
:1006E000504502D14FF4000301E04FF000631A427D
:1006F00031D00268D24312072DD4026822F00802DA
:1007000002602068584501D1082114E0A84201D1B7
:10071000802110E0B0420ED0B84201D161460AE01B
:10072000484501D1714606E0504502D14FF4000121
:1007300001E04FF00061C8F80410606B40F0010068
:100740006063042084F82100002084F82000216BDD
:1007500009B1204688476248D0F800C04FF4806154
:1007600020680A010B044FF4802E584502D14FF047
:10077000040816E0A84202D14FF0400811E0B04250
:1007800001D188460DE0B84201D1904609E04845C4
:1007900001D1F04605E0504502D14FF4800800E059
:1007A00098461CEA080F33D0D0F800C06FEA0C0C52
:1007B0005FEA4C7C2CD4D0F800C05FEA8C6C05D486
:1007C000D0F800C02CF0040CC0F800C020685845D8
:1007D00001D1042113E0A84201D140210FE0B04231
:1007E0000DD0B84201D1114609E0484501D171460A
:1007F00005E0504502D14FF4800100E01946384829
:100800004160112084F82100E16A09B1204688473F
:10081000334AD2F800C05B46206851154FF4005BA4
:100820004FF4003E984202D14FF0020817E0A84270
:1008300002D14FF0200812E0B04201D188460EE00C
:10084000B84201D1D8460AE0484501D1F04606E059
:10085000504502D14FF4001801E04FF000781CEA37
:10086000080F3BD0D0F800C06FEA0C0C5FEA8C7C1C
:1008700034D4D0F800C05FEA8C6C05D4D0F800C046
:100880002CF0020CC0F800C02068984201D102216F
:1008900014E0A84201D1202110E0B0420ED0B842AD
:1008A00001D159460AE0484501D1714606E050455C
:1008B00002D14FF4001101E04FF000715160606B04
:1008C0006063012084F82100002084F82000A16AE0
:1008D000002903D02046BDE8F05F0847BDE8F09F3F
:1008E0000000024070B520B190F82110002411B131
:1008F00003E0012070BD80F82040022180F8211023
:1009000003681A6843F6F0718A43D0E90115294358
:10091000D0E903563543294345692943856929436D
:10092000C5692943114319604463012180F82110EE
:10093000002070BD31B500F0F5F8044600F0F2F883
:100940000099001B8842F9D338BD00002DE9F84F0B
:10095000DFF8ACA100220AF1040B144601274FF086
:100960000F090BF1040E00BF0B6807FA04F52B40CA
:10097000AB4276D1DFF88CC14E68A6EB0C08664519
:100980002BD00DDC032E34D005DC36B3012E19D06C
:10099000022E2FD11BE0112E16D0122E2AD119E0D3
:1009A000B8F5881F19D006DCB8F5803F15D0B8F52A
:1009B000801F1FD111E0B8F5001F0ED0B8F5041F3D
:1009C00018D10AE0CA6815E0CA68121D12E0CA68A8
:1009D00008320FE0CA680C320CE08A682AB1012A9A
:1009E0004FF0080203D0456104E0042202E00561F3
:1009F00000E00022FF2B01D8054601E000F10405CC
:100A00004FEA840601D9A6F12006D5F800C009FAFC
:100A100006F82CEA080C02FA06F64CEA060CC5F8B1
:100A200000C04D68ED0065D5374DAE6946F0010652
:100A3000AE61AD6924F0030605F001050095334D64
:100A400006EB050CDCF80850A607360F09FA06F885
:100A500025EA0805DFF8B880404503D14FF00008CB
:100A600017E047E0DFF8AC80404502D14FF00108C5
:100A70000FE0DFF8A480404502D14FF0020808E003
:100A8000DFF89880404502D14FF0030801E04FF0B5
:100A9000040808FA06F848EA0508CCF808804D680A
:100AA000DAF80060ED03002D554601DA1E4300E040
:100AB0009E432E604D68DBF80060AD03002D5D465F
:100AC00001DA1E4300E09E432E604D68DEF80060B0
:100AD000ED02002D754601DA1E4300E09E432E60B4
:100AE0004D68AD02002D0E4D2E6801DA1E4300E068
:100AF0009E432E60641C102CFFF436AFBDE8F88FC7
:100B000000040140000011100010024000000140EC
:100B100000080140000C0140001001400014014099
:100B20000C040140014800687047000014000020D8
:100B300002480168491C0160704700001400002051
:100B4000074810B5016841F010010160032000F072
:100B50005BF8002000F006F800F016F8002010BD49
:100B60000020024010B5044600F036FA4FF47A71C6
:100B7000B0FBF1F000F00DFE00222146501E00F007
:100B800023F8002010BD000010B5032000F03CF851
:100B900000221146501E00F017F80448416821F069
:100BA000E06141F08061416010BD00000000014043
:100BB00000F01F020121914040094FF0E02202EBBA
:100BC0008000C0F800117047F0B40E4B1B680C4653
:100BD000C3F30223C3F10705042D00D90425191D11
:100BE000072901D2002300E0DB1E012606FA05F1E9
:100BF000491E214099409E40761E16403143F0BC6C
:100C000001F032B80CED00E0064900F00702086878
:100C10004FF6FF03184040EA0220034A10430860E1
:100C2000704700000CED00E00000FA052DE9F843E4
:100C300004460078434DC0076FD0E86940F080500B
:100C4000E861E869404E00F080500090306840F460
:100C500080703060FFF766FF074604E0FFF762FF31
:100C6000C01B64282FD83068C005F7D5286AA18832
:100C700000F4407001F440710126814212D0286ACC
:100C80003204324992FAA2F3B3FA83F320F44070AB
:100C900041F8236092FAA2F2B2FA82F2002341F8FC
:100CA000223028626068B0F5807F30D1FFF73AFFCC
:100CB000B046074641F28839022607E0FFF732FFC7
:100CC000C11B494502D90320BDE8F88396FAA6F076
:100CD000B0FA80F040F04000B8EB501F01D1286816
:100CE0000BE096FAA6F0B0FA80F040F04000B6EBC8
:100CF000501F01D1286A00E0686A96FAA6F2B2FA9B
:100D000082F202F01F0208FA02F10842D6D0286AE5
:100D1000616820F44070084328622078800705D578
:100D20006868A16820F44040084368602078C006E5
:100D300005D56868E16820F48000084368600020F9
:100D4000C2E7000000100240007000400004424270
:100D50002DE9F047DFF8789205460E46D9F80000F5
:100D6000022300F00707012041044206994C41F29A
:100D70008838B74271D2D9F800C02CF0070C4CEA81
:100D8000060CC9F800C0D9F8007007F00707B74291
:100D90006FD12E78B60705D56668AF6826F0F006E5
:100DA0003E4366602E78F60756D06E68012E0BD053
:100DB000022E1ED093FAA3F1B1FA81F141F0200185
:100DC000490924D0216823E091FAA1F2B2FA82F213
:100DD00042F02002520901D0226800E0626A91FAD2
:100DE000A1F1B1FA81F101F01F018840024240D027
:100DF00017E092FAA2F1B1FA81F141F0200149091C
:100E000001D0216800E0616A92FAA2F202E0616A10
:100E100093FAA3F2B2FA82F202F01F02904001426A
:100E200027D0606820F0030030436060FFF77AFE4F
:100E300006466868012809D00228474613D01EE0FC
:100E4000FFF770FE801BB84201D992E04746606808
:100E5000C0F381000128F3D1A1E015E0FFF762FEA5
:100E6000801BB84273D86068C0F381000228F5D1B6
:100E700095E092E0FFF756FE801BB84279D8606893
:100E800010F00C0FF6D18AE02F78BF0707D56768FE
:100E9000D5F808C027F0F00747EA0C0767602F78FD
:100EA000FF076DD06F68012F0BD0022F1ED093FA71
:100EB000A3F1B1FA81F141F02001490924D0216860
:100EC00023E091FAA1F2B2FA82F242F02002520932
:100ED00001D0226800E0626A91FAA1F1B1FA81F1D1
:100EE00001F01F018840024257D017E092FAA2F1A8
:100EF000B1FA81F141F02001490901D0216800E0F7
:100F0000616A92FAA2F202E0616A93FAA3F2B2FA7B
:100F100082F202F01F02904001423ED0606820F051
:100F2000030038436060FFF7FDFD0746686801284D
:100F300007D0022811D01FE0FFF7F4FDC11B414587
:100F400017D86068C0F381000128F5D118E010E0DF
:100F5000FFF7E8FDC11B41450BD86068C0F3810075
:100F60000228F5D10CE000BFFFF7DCFDC11B4145B5
:100F700002D90320BDE8F087606810F00C0FF3D1B0
:100F8000D9F8001021F007013143C9F80010D9F851
:100F9000000000F00700B04201D00120EAE7287805
:100FA000400705D56068E96820F4E06008436060A8
:100FB0002878000706D56068296920F4605040EA67
:100FC000C10060600020FFF7CDFD0020D2E70000E7
:100FD000002002400010024010B500F043F808491C
:100FE0004968F02292FAA2F201F0F001B2FA82F21C
:100FF000D140044A515CC8400349086010BD00005C
:1010000000100240002900080000002010B5FFF782
:10101000E3FF074949684FF4E06292FAA2F201F453
:10102000E061B2FA82F2D140024A515CC84010BD80
:10103000001002400029000810B5FFF7CDFF074956
:1010400049684FF4605292FAA2F201F46051B2FA88
:1010500082F2D140024A515CC84010BD00100240EB
:101060000029000810B585B01AA301ACD3E901012D
:101070001A68DB6800920BC41AA01B4B006804902E
:101080005A681A4802F00C0104291ED008291CD104
:101090004FF4701494FAA4F402F47011B4FA84F4C6
:1010A00021FA04F1D2031DF8011010D55A684FF44B
:1010B000003393FAA3F302F40032B3FA83F3DA4075
:1010C00004AB9A5CB0FBF2F0484305B010BD084891
:1010D0004843FAE702030405060708090A0B0C0D4A
:1010E0000E0F1010010200000010024000127A00E2
:1010F00000093D002DE9F84F05460078FE4EC00777
:101100004FF0010427D070686704C0F38100012804
:1011100007D07068C0F3810002281DD17068C00339
:101120001AD597FAA7F0B0FA80F040F020004009F5
:1011300001D0306800E0706A97FAA7F1B1FA81F146
:1011400001F01F0104FA01F1084204D06868012887
:1011500001D0052878D183E0306820F480303060F9
:10116000306820F480203060FFF7DCFC814641F2DB
:10117000883805E0FFF7D6FCA0EB090141457CD893
:1011800097FAA7F0B0FA80F040F02000400901D0B3
:10119000306800E0706A97FAA7F1B1FA81F101F0C6
:1011A0001F0104FA01F10842E4D1306820F48030D4
:1011B0003060686801280BD0052811D0306820F411
:1011C00080203060686858B3FFF7ACFC814611E0BE
:1011D000306820F480203060306840F48030F0E7E0
:1011E0000520B070EEE700BFFFF79CFCA0EB090103
:1011F0004145C4D897FAA7F0B0FA80F040F020003B
:10120000400901D0306800E0706A97FAA7F1B1FA9E
:1012100081F101F01F0104FA01F10842E4D01FE05E
:10122000FFF780FC814605E0FFF77CFCA0EB09019D
:101230004145A4D897FAA7F0B0FA80F040F020001A
:10124000400902D0306801E0B1E0706A97FAA7F176
:10125000B1FA81F101F01F0104FA01F10842E3D172
:101260002878DFF898B280074FF000094FF00207A6
:1012700032D5706810F00C0F00E0AEE14FF0F80AC4
:1012800007D07068C0F38100022826D17068C003BF
:1012900023D497FAA7F0B0FA80F040F0200040097C
:1012A00001D0306800E0706A97FAA7F1B1FA81F1D5
:1012B00001F01F0104FA01F1084202D02869012857
:1012C00075D130689AFAAAF120F0F8026869B1FA8B
:1012D00081F188400243326059E0286988B394FA6A
:1012E000A4F1B1FA81F14BF82140FFF71BFC8046D5
:1012F00006E000BFFFF716FCA0EB0800642898D8B2
:1013000097FAA7F0B0FA80F040F02000400901D031
:10131000306800E0706A97FAA7F1B1FA81F101F044
:101320001F0104FA01F10842E4D030686A6920F034
:10133000F8019AFAAAF0B0FA80F0824011433160C5
:1013400025E0FFE794FAA4F2B2FA82F24BF8229079
:10135000FFF7E8FB804605E0FFF7E4FBA0EB0800A1
:101360006428CCD897FAA7F0B0FA80F040F02000BB
:10137000400901D0306800E0706A97FAA7F1B1FA2D
:1013800081F101F01F0104FA01F10842E4D128784B
:1013900000076AD55A48A969A9B394FAA4F1B1FA29
:1013A00081F140F82140FFF7BDFB804606E0CEE129
:1013B000FFF7B8FBA0EB08006428A0D897FAA7F0C5
:1013C000B0FA80F040F06000B4EB501F01D13068FB
:1013D0000BE097FAA7F0B0FA80F040F06000B7EBAE
:1013E000501F01D1306A00E0706A97FAA7F1B1FA94
:1013F00081F101F01F0104FA01F21042D8D001205E
:10140000FFF798FA31E0FFE794FAA4F2B2FA82F219
:1014100040F82290FFF786FB804605E0FFF782FB4D
:10142000A0EB080064289CD897FAA7F0B0FA80F0E7
:1014300040F06000B4EB501F01D130680BE097FA28
:10144000A7F0B0FA80F040F06000B7EB501F01D178
:10145000306A00E0706A97FAA7F1B1FA81F101F001
:101460001F0104FA01F21042D8D1287840077DD537
:10147000F06940F08050F061F069DFF888A000F07A
:1014800080500090DAF8001041F48071CAF8001022
:10149000FFF748FB804605E0FFF744FBA0EB0800A0
:1014A00064288AD8DAF80000C005F5D5DFF850A026
:1014B00094FAA4F2AAF1800AB2FA82F24AF82290CF
:1014C000042292FAA2F2B2FA82F24AF82290FFF7CC
:1014D00029FB009008E000BFFFF724FB0099411AA8
:1014E00041F28830814278D897FAA7F0B0FA80F0BC
:1014F00040F0400008E000000010024000004242BE
:101500008004424200700040B4EB501F01D13068AB
:101510000BE097FAA7F0B0FA80F040F04000B7EB8C
:10152000501F01D1306A00E0706A97FAA7F1B1FA52
:1015300081F101F01F0104FA01F1A0460842CBD16C
:10154000E868D0B101284946504624D094FAA4F264
:10155000B2FA82F240F82210042191FAA1F100BF00
:10156000B1FA81F14AF82140E86800E077E001280B
:101570001BD0FFF7D7FA824650E094FAA4F2B2FAF1
:1015800082F24AF82290042292FAA2F2B2FA82F28D
:101590004AF82290E8E7042292FAA2F2B2FA82F222
:1015A00040F8221094FAA4F1DAE7FFF7BBFA82467A
:1015B00008E000BFFFF7B6FAA0EB0A0141F288305D
:1015C00081420AD897FAA7F0B0FA80F040F04000C4
:1015D000B8EB501F02D130680CE09BE097FAA7F0FF
:1015E000B0FA80F040F04000B7EB501F01D1306AF4
:1015F00000E0706A97FAA7F1B1FA81F101F01F02D9
:1016000008FA02F10842D5D029E000BFFFF78AFAB4
:10161000A0EB0A0141F2883081427BD897FAA7F00B
:10162000B0FA80F040F04000B8EB501F01D13068B4
:101630000BE097FAA7F0B0FA80F040F04000B7EB6B
:10164000501F01D1306A00E0706A97FAA7F1B1FA31
:1016500081F101F01F0208FA02F10842D6D1E869CF
:1016600080B37168C1F38101022970D04FF080719D
:101670004F00022809D091FAA1F1B1FA81F14BF89B
:101680002190FFF74FFA05466AE04846894691FAED
:10169000A1F1B1FA81F14BF82100FFF743FA80463E
:1016A00006E000BFFFF73EFAA0EB0800642854D81C
:1016B00097FAA7F0B0FA80F040F02000400902D07D
:1016C000306801E061E0706A97FAA7F1B1FA81F140
:1016D00001F01F0104FA01F10842E3D1286AB0F5D4
:1016E000803F05D17068A96820F40030084370601D
:1016F000D5E908010843716821F47411084370604A
:1017000099FAA9F1B1FA81F14BF82140FFF70AFAF1
:10171000054606E021E000BFFFF704FA401B6428FD
:101720001BD897FAA7F0B0FA80F040F020004009EB
:1017300001D0306800E0706A97FAA7F1B1FA81F140
:1017400001F01F0104FA01F10842E5D01DE01EE09E
:10175000FFF7E8F9401B642802D90320BDE8F88FA1
:1017600097FAA7F0B0FA80F040F02000400901D0CD
:10177000306800E0706A97FAA7F1B1FA81F101F0E0
:101780001F0104FA01F10842E2D10020E6E701203E
:10179000E4E710B5401EB0F1807F01D3012010BDF9
:1017A0004FF0E02460610F21601700F05DFA002027
:1017B000A06107202061002010BD7047704730B540
:1017C00090F83820012A20D0012280F83820022306
:1017D00080F8393003685C6824F070045C6003684A
:1017E0005C680D682C435C6003689C6824F080048E
:1017F0009C6003689C6849680C439C6080F83920B1
:10180000002180F83810084630BD022030BD10B5E8
:10181000040003D094F8390010B107E0012010BD96
:10182000002084F83800204600F00CF8022084F8EC
:101830003900211D206800F09DFA012084F839004C
:10184000002010BD08B500680B49884212D10B4832
:10185000816941F4006181618069002200F40060C7
:10186000009005211920FFF7AFF9BDE808401920C5
:10187000FFF79EB908BD0000002C01400010024097
:1018800070B5044690F83800012817D0012584F877
:101890003850022084F839002068826822F07702EC
:1018A00022F47F4282600868502837D00DDC20285F
:1018B00058D005DC88B3102841D150E0022070BD1B
:1018C000302852D040283AD13EE060282ED07028EF
:1018D0000BD0B0F5805F03D0B0F5005F2FD110E0E2
:1018E0002068816821F0070115E04A680831206806
:1018F0000AC900F071FA2168886840F077008860B2
:101900001DE04A68083120680AC900F065FA2068BD
:10191000816841F48041816011E01DE0CA68496836
:10192000206800F06BFA5021206806E0CA68496818
:10193000206800F074FA6021206800F057FA38340B
:1019400065700020207070BDCA684968206800F08A
:1019500055FA40212068F0E700212068EDE71021CA
:101960002068EAE720212068E7E730212068E4E7E3
:10197000704770B50446006801694FF00005C9431F
:10198000890715D4C168C943890711D4E91E0161CB
:1019900001202076206880698007204602D0FFF76A
:1019A000E7FF04E000F098F8204600F096F825766E
:1019B00020680169C943490717D4C168C943490769
:1019C00013D46FF004010161022020762068806941
:1019D00010F4407F204602D0FFF7CAFF04E000F079
:1019E0007BF8204600F079F8257620680169C94324
:1019F000090716D4C168C943090712D46FF008015A
:101A00000161042020762068C0698007204602D04A
:101A1000FFF7AEFF04E000F05FF8204600F05DF84D
:101A2000257620680169C943C90617D4C168C9432E
:101A3000C90613D46FF010010161082020762068D8
:101A4000C06910F4407F204602D0FFF791FF04E008
:101A500000F042F8204600F040F825762068016941
:101A6000C943C90708D1C168C943C90704D1891E40
:101A70000161204600F032F820680169C943090677
:101A800009D4C168C943090605D46FF0800101611A
:101A90002046FFF792FE20680169C943490609D430
:101AA000C168C943490605D46FF040010161204671
:101AB00000F015F820680169C94389060BD4C16894
:101AC000C943890607D46FF0200101612046BDE8B3
:101AD0007040FFF773BE70BD704770477047704726
:101AE00070B5040004D094F83900002510B106E068
:101AF000012070BD84F83850204600F021F8022003
:101B000084F839002068C16821F40051C160204682
:101B100000F098F92068016921F490410161206882
:101B2000416921F02A0141612068C16841F40051F6
:101B3000C160E563012084F83900002070BD000019
:101B400010B50068114986B088421CD110488169DF
:101B500041F48041816180690E4C00F48040049022
:101B60004FF40070009002200190039069462046D7
:101B7000FEF7ECFE00212015CDE900010291694637
:101B80002046FEF7E3FE06B010BD0000003801401D
:101B90000010024000080140FEB521481F49012500
:101BA00001600024C0E902544461082606614FF434
:101BB00060214460C161FEF79DFCCDE900456946A6
:101BC00017480294FEF76AFB022001906946144808
:101BD000FEF764FB0320019069461148FEF75EFBA7
:101BE0000420019069460E48FEF758FB052001903D
:101BF00069460B48FEF752FB0620019069460848EB
:101C0000FEF74CFB0720019069460548FEF746FBAE
:101C1000694603480196FEF741FBFEBD00240140E2
:101C20008400002010B50F4886B00D490024C0E99B
:101C300000144CF25031C0E9024104614461FFF7E5
:101C4000E6FD4FF48050009069460648FFF718FE05
:101C5000049404A903480594FFF7B1FD06B010BD34
:101C6000002C0140B40000200907090E002803DA07
:101C700000F00F00024A00E0024A81547047000061
:101C800014ED00E000E400E0012000F0E7F9FBE7DC
:101C9000012000F0E3F902A000F044F9F8E70000A9
:101CA0006162636473737300012000F0D7F9FBE78E
:101CB00010B500F061FD012801D000F089FCBDE8FD
:101CC0001040FEF735BF000030B595B0012002246A
:101CD00004900094102005900025CDE90745684642
:101CE0000995FFF707FA0AA9052031C16002CDE97D
:101CF0000D0502210AA8FFF72BF8A00311900F94FD
:101D00000FA8FEF793FF0548816941F00101816149
:101D1000806900F00100139015B030BD0010024042
:101D20000D48016841F00101016041680B4A114012
:101D3000416001680A4A11400160016821F4802174
:101D40000160416821F4FE0141604FF41F01816090
:101D50000449C00308607047001002400000FFF80B
:101D6000FFFFF6FE08ED00E00148FFF702BE0000AD
:101D7000B4000020F0B50268144B154C154D4FF01F
:101D80008047984205D0B84203D0A04201D0A84273
:101D900003D122F070064A683243984205D0B84217
:101DA00003D0A04201D0A84203D122F44074CA68F3
:101DB000224302608A68C2620A688262984201D144
:101DC0000969016301214161F0BD0000002C01405F
:101DD000000400400008004010B5846842EA032275
:101DE00024F47F440A432243826010BD826822F0BB
:101DF00070020A4342F007018160704710B5036A20
:101E0000046A24F001040462846924F0F00444EAC2
:101E1000021423F00A020A438461026210BD10B565
:101E2000036A23F0100303628369046A23F4704396
:101E300043EA023224F0A00343EA01118261016205
:101E400010BD00002DE9F041044600680169E26818
:101E500021F44051114301612169A068084361697F
:101E600008432168CA6841F20C639A430243CA607E
:101E700020684169A26921F44071114341612849F8
:101E8000206864254FF03208884218D1FFF7D4F853
:101E900000EBC00101EB001061688900B0FBF1F0BC
:101EA000B0FBF5F6FFF7C8F800EBC00101EB00103E
:101EB00061688900B0FBF1F7FFF7BEF817E0FFF7A4
:101EC000A5F800EBC00101EB001061688900B0FBD0
:101ED000F1F0B0FBF5F6FFF799F800EBC00101EB6C
:101EE000001061688900B0FBF1F7FFF78FF800EB95
:101EF000C00101EB001061688900B0FBF1F0B0FB9C
:101F0000F5F06FF01801484307EB800108EB011072
:101F1000B0FBF5F0216866F31F108860BDE8F08122
:101F200000380140014A024900F013B8751F00084B
:101F30008000002002E008C8121F08C1002AFAD160
:101F400070477047002001E001C1121F002AFBD139
:101F500070472DE9F04116460F460446002503E080
:101F60003946B0476D1C641C20780028F8D12846FB
:101F7000BDE8F08138B504468DF8000069460320BD
:101F8000ABBE204638BD000090B0FEF7D9FDFFF78C
:101F90009BFE2A48816941F004018161816901F059
:101FA00004010F91416941F0010141614069002242
:101FB00000F001000F9005210B20FEF705FE0B201D
:101FC000FEF7F6FDFFF7E8FDFFF72CFE1D481C4964
:101FD0004FF4806201604FF4E13141604FF4805171
:101FE00081600021C0E903120C22C0E90521C16112
:101FF000FFF776FD142214496846FEF7E5F8002144
:10200000684600F037F8114C0F4914222060143153
:1020100005A8FEF7D9F8002105A800F02BF80A4919
:102020006060142228310AA8FEF7CEF800210AA821
:1020300000F020F8A06000F018F8FEE70010024061
:1020400000380140F000002010290008180000208E
:1020500001460020842900D0C81C704710B500B983
:10206000012000F0F9F9002010BD10B500F01CFAB5
:10207000002010BD30B5044685B00D46B0F908000B
:10208000FFF7E6FF002104AA0090CDE901210391AA
:10209000208A2B4682B2D4E9001000F0ABFA012866
:1020A00002D0002005B030BD0498FBE770B50B4CA2
:1020B000054620684560E0682168854201F1040119
:1020C00004D2606BBDE8704000F036B9206B00F0C0
:1020D00033F9A06A854200D2A56270BD4800002095
:1020E00070B5124E124C1AE000F004FA3068D0B10C
:1020F00000F0B0FB00F044F9F068C568281D00F05E
:10210000FBF8A068401EA0606068401E606000F0A0
:1021100051F9286B00F060F9284600F05DF960681D
:102120000028E1D170BD00F095FBF8E7000A00201F
:102130004800002010484FF4FA61420706D0C01D45
:102140000D4920F00700411AC1F5FA610B4A00233E
:102150000144C2E900030839103A21F00701116077
:102160004B600B600B1AC0E9001393604FF0004006
:102170005360D060704700006801002040000020DC
:10218000044C00BFFFF7ACFF20680128FAD900F02B
:1021900057F9F7E73809002030B5114900E011463A
:1021A0000A688242FBD34B685C18844203D14068C2
:1021B00018444860084643681C18944209D1084CEA
:1021C000103C2468A24209D052681A4442600A684E
:1021D00012680260814200D0086030BD0460F9E7F7
:1021E000400000200648016B096829B1016BC968ED
:1021F000C9684968816270474FF0FF31FAE7000013
:102200004800002004484068401C02D0FDF7BCFF95
:10221000FEE7FDF7B9FFFEE7240000202DE9F041BD
:102220000546002700F066F92A4E306808B9FFF726
:1022300081FFF068054242D1F5B30835680709D03F
:1022400005F00700C0F108000544680702D0FDF75B
:102250009BFFFEE785B37068854230D81D4810307B
:1022600001460C6801E020460C466168A94202D292
:1022700021680029F7D131688C4220D00768216895
:10228000016060680837411B102909D960194207AD
:1022900002D0FDF779FFFEE741606560FFF77CFF44
:1022A00061687068401A7060B268904200D2B06095
:1022B000F0680143002000E001E0C4E9000100F003
:1022C000C9FA780702D0FDF75FFFFEE73846BDE8A0
:1022D000F08100003000002010B5031F4FF0807423
:1022E0001C601B1F1960191F024B0B60143940380A
:1022F0000A6010BD05220008D0E9013201699A6028
:10230000D0E901235A604A68824201D182684A605A
:10231000002202610868401E0860704700F1080151
:102320004FF0FF32C0E90112C1600161002101607C
:10233000704700210161704730B50B685A1C02D00C
:1023400000F1080202E0026904E0224654682568B0
:102350009D42FAD953684B6099608A605160086168
:102360000168491C016030BD42684A6093688B6017
:1023700093685960916008610168491C0160704769
:1023800010B5FDF701FF09484168491CBFF34F8FA5
:10239000BFF36F8F4160012906D105480068C00670
:1023A00002D0FDF7F1FEFEE710BD00002400002082
:1023B00004ED00E0074910B5486830B1401E4860A0
:1023C00006D1BDE81040FDF7E6BEFDF7DDFEFEE7F5
:1023D00010BD00002400002070B500281DD00F4D56
:1023E000A0F108046068E968084204D022682AB1B4
:1023F000FDF7CAFEFEE7FDF7C7FEFEE78843606013
:1024000000F078F860686968084468602046FFF763
:10241000C3FEBDE8704000F01DBA70BD3000002062
:1024200006484FF47A710068B0FBF1F14FF0E020FC
:10243000491E416107210161704700000000002032
:1024400004494FF080500860BFF34F8FBFF36F8F88
:102450007047000004ED00E070B502001DD0114C83
:10246000E06A10B1FDF790FEFEE700F043F8E06887
:1024700085182068001DFFF73FFF38B9206890F8E5
:102480002C10012088402169814321612846FFF7F3
:102490000DFE00F0DFF9002803D1BDE87040FFF722
:1024A000CFBF70BD480000201FB5002400940194E8
:1024B0000294234680220BA10C48039400F09AF862
:1024C000012804D000280CD1FDF75EFEFEE7FDF7E1
:1024D0005BFE074801214161C460BDE81F4000F078
:1024E0003BB81FBD49444C45000000008121000855
:1024F000480000200248C16A491CC16270470000C0
:1025000048000020124810B5C16A11B10121C16113
:1025100010BD0021C16101690E4AB1FA81F1C1F11A
:102520001F0101EB810152F821306BB102EB8101F7
:1025300001F108034A6852684A609A4201D1526820
:102540004A60D168016010BDFDF71EFEFEE7000085
:1025500048000020380900201CB51A49087801906D
:10256000FF20087008788DF800009DF80000164ADA
:1025700000F0500010700720906007E09DF80030D8
:10258000A0F101004FEA43038DF800309DF80030C0
:102590001B06F3D4000200F4E0609060019808701C
:1025A0000A48016841F470010160016841F070411E
:1025B0000160FFF735FF00205060FDF7B3FD0020FC
:1025C0001CBD000000E400E02400002020ED00E03D
:1025D00010B5FDF7D9FD00F0DDF818B104494FF052
:1025E00080500860BDE810400020FDF7D4BD000019
:1025F00004ED00E02DE9FF5F1546DDE90E68109F50
:102600008A465FEA000B04D0072E05D3FDF7BCFD18
:10261000FEE7FDF7B9FDFEE75420FFF7FFFD0400DC
:102620001CD0A80081469FB13846206398B1A522EE
:102630004946FDF7DBFD6FF00301206B01EB8501DF
:10264000084420F0070778070BD0FDF79DFDFEE753
:10265000FFF7E4FDE9E72046FFF7BEFE4FF0FF3449
:1026600082E051463546002022180B5C82F8343057
:102670000A5C12B1401C1028F6D3002084F84300F5
:10268000072D00D30625E562C4E91350201DFFF78E
:1026900050FE04F11800FFF74CFEC5F1070124615C
:1026A000A161646259463846039AFFF715FE20601F
:1026B000B8F1000F01D0C8F80040FFF761FE2C4DC3
:1026C000A868401CA8602868DFF8A88010B1686975
:1026D00048B32DE02C60A868012829D15FF00007DD
:1026E00007EB870108EB8100FFF718FE7F1C072F1F
:1026F000F6D320488C30FFF711FE1E48A030FFF7BC
:102700000DFE1C48B430FFF709FE1A48C830FFF729
:1027100005FE1848DC30FFF701FE16488C302863B0
:102720001430686304E02868C06AB04200D82C60A6
:10273000686A401C68626064E16A01202A69884016
:102740001043286101EB810108EB8100211DFFF797
:102750000BFE0124FFF72EFE686928B12868C06AC5
:10276000B04201D2FFF76CFE04B02046BDE8F09FF6
:1027700048000020380900200548416919B1C06AA5
:1027800018B10020704701207047022070470000F8
:10279000480000202DE9F0412C4C0026E06A40B1B1
:1027A000A069401CA061E06900B101263046BDE887
:1027B000F081E068401CE060E76877B9206B006852
:1027C00010B1FDF7E1FCFEE7206B616B21636063F4
:1027D000206A401C2062FFF705FDA06ADFF87080C8
:1027E000874209D3206B006880B1206BC068C56840
:1027F000686887420DD2A0622068C06A00EB800141
:1028000058F821000128CED90126CCE74FF0FF303F
:10281000F1E7281DFFF770FDA86A18B105F118004F
:10282000FFF76AFDE96A01202269884010432061B0
:1028300001EB810108EB8100291DFFF795FDE86A96
:102840002168C96A8842CDD30126CBE74800002021
:10285000380900202DE9F047274C0026E06A38B1FE
:10286000FFF78EFDE06A401EE062E06A18B13DE0CD
:10287000FDF78AFCFEE7A168204D012079B3A5F1A0
:10288000B40980462868E8B1E868C76807F118000D
:10289000FFF732FD381DFFF72FFDF96A226908FAAC
:1028A00001F01043206101EB810109EB8100391D2A
:1028B000FFF75AFDF86A2168C96A8842E2D3C4F872
:1028C0001C80DFE7A06958B14546A06940B1FFF719
:1028D00061FF00B1E561A069401EA061F5E705E078
:1028E000E069012802D10126FFF7AAFDFFF762FD8A
:1028F0003046BDE8F087000048000020EC090020C9
:102900000000000001020304010203040607080995
:1029100063290008891C0008000000000000000076
:10292000800000005A290008911C000800000000E7
:1029300000000000800000004C290008A91C0008CD
:10294000FDFF0000000000008000000069646C656D
:1029500041444353616D706C650070696E674261FC
:10296000636B0064656661756C745461736B000021
:10297000902900080000002084000000341F000897
:10298000142A000884000020A40D0000441F000841
:1029900000A24A040000000000000000010203043D
:1029A0000607080900000000000000000000000009
:1029B0000000000000000000AAAAAAAA000000006F
:1029C0000000000000000000000000000000000007
:1029D00000000000000000000000000000000000F7
:1029E00000000000000000000000000000000000E7
:1029F00000000000000000000000000000000000D7
:102A0000FFFFFFFF000000000000000000000000CA
:042A100000000000C2
:04000005080000ED02
:00000001FF
