:020000040800F2
:1000000070040020E5320008C10F0008C30F00088B
:10001000C70F0008CB0F0008CF0F0008000000003A
:10002000000000000000000000000000D50F0008E4
:10003000D30F000800000000D70F00088F09000848
:10004000D90F0008DB0F0008DD0F0008DF0F0008E4
:10005000E10F0008E30F0008E50F0008E70F0008B4
:10006000E90F0008EB0F0008ED0F0008ED0800088D
:10007000EF0F0008F10F0008F30F0008F50F00085C
:10008000F70F0008F90F0008FB0F0008FF32000807
:10009000FF320008FF320008FF3200080510000898
:1000A00007100008091000080B1000080D100008C8
:1000B0003D0900080F100008310900081110000860
:1000C0001310000815100008171000081910000878
:1000D0001B1000081D1000081F1000082110000848
:1000E000231000082510000827100008DFF80CD0A6
:1000F00003F0EEFA00480047FD06000870040020F7
:1001000001B581B0002000904FF43471019848434C
:10011000009002E00098401E009000980028F9D15D
:100120000CBD2DE9F34F8BB000200A9009900C987C
:1001300000EB800040000890002007900A988000A3
:1001400040F2B63148430899B0FBF1F0C0F57A703F
:100150000690322005900A98800040F2B63148435C
:1001600008994843A0F52F6004904FF4AF710B98A5
:10017000484380B2039008980001BDF80C10484332
:1001800040F2B631B0FBF1F0801C089980EA010B17
:10019000584603F09AF9054603F087FC0022FE4B0F
:1001A000CDE9000103F0B0F8074603F09BF90446DF
:1001B0000899081B03F089F907460022F74B03F062
:1001C00015F9054603F08EF981460722089902FBCE
:1001D0000141C80803F079F9054603F083F902905C
:1001E000BDF80C00C0000899091BB0FBF1F000F548
:1001F0007A77384603F069F9054603F073F98246C9
:10020000CDF800A04A462146E5A0029B03F082FA01
:100210000120EA4908604FF00000E949C1F898015F
:100220004FF00100E74908604FF09600FFF768FFC4
:100230000020E349C1F88401C820FFF761FF0120D5
:10024000E04908604FF4AF70FFF75AFF0020DD4926
:1002500008604FF00100DC490860D949C1F8A401E9
:10026000DA48006808B9012000E00020D74908609A
:100270004FF00000D649C1F8B801D6A0069903F0A6
:1002800049FA39E0D448006809900A98A0EB0900BF
:10029000BDF80C10B1FBF0F050440690CF48006858
:1002A00008B9012000E00020CC490860C448D0F81B
:1002B000B80108B9012000E00020C949086000BF6A
:1002C000C54800680999A0EB01000790DDE9061018
:1002D0008842F5D3BD48006808B9012000E000203D
:1002E000BA4908600A9800F101000A90BA48069AD3
:1002F0000168BCA003F00EFA08990A98B0EB910FC0
:10030000C0D3089880080A900120B84908602AE004
:10031000B14800680990B148006808B9012000E0C0
:100320000020AE490860A648D0F8B80108B90120FD
:1003300000E00020AA49086000BFA74800680999AA
:10034000A0EB01000790059907988842F5D39F48D4
:10035000006808B9012000E000209C4908600A9864
:1003600000F101000A90089800EB40000A99B1EBF7
:10037000900FCDD3089800EB400080080A90002031
:100380009A49086033E00A98A9EB0000BDF80C1008
:10039000B1FBF0F0504404908F48006809908F48FA
:1003A000006808B9012000E000208C4908608448FA
:1003B000D0F8B80108B9012000E0002088490860A1
:1003C00000BF854800680999A0EB010007900499D7
:1003D00007988842F5D37D48006808B9012000E0FD
:1003E00000207A4908600A9800F101000A900899F3
:1003F0000A988842C7D301207C4908604FF000006A
:100400006F49C1F8A0017A4908600DB0BDE8F08FCE
:1004100000B58DB00121084601F09FF9754801F043
:1004200039FC00200C9020200A9000020B90401113
:10043000089080000990802007900020069004908A
:10044000052005906C4802906C48039002A9694809
:1004500001F0C2FC01220221664801F0F4FC0121F6
:10046000644801F0E4FC0B208DF8040000208DF8B6
:1004700005008DF8060001208DF8070001A800F0A6
:10048000FAFD0DB000BD00B587B001214FF4017039
:1004900001F070F901A800F040FF3D20ADF8040024
:1004A00000208DF8070001A9554800F0ADFE4FF47B
:1004B000404001F0C6F80020029001208DF80C00A9
:1004C0008DF80D004FF46020049000200590052069
:1004D0008DF8180002A948484C3801F0DAF90423D5
:1004E0000122002144484C3801F06BFA0423022217
:1004F000114641484C3801F064FA042303221146A6
:100500003D484C3801F05DFA04231A4619463A4832
:100510004C3801F056FA04230522114636484C386F
:1005200001F04FFA012134484C3801F0DEF9012185
:1005300031484C3801F0E4F92F484C3801F0F7F914
:1005400000BF2D484C3801F0F7F90028F9D12A48AE
:100550004C3801F0FBF900BF27484C3801F0FBF99B
:100560000028F9D107B000BD00B587B0012144F2E1
:10057000050001F0FFF84FF40070ADF818001820E6
:100580008DF81B0003208DF81A0006A91C4800F006
:100590003BFE4FF4806035E00000F0BF00002040DB
:1005A00025352E33640925352E33640925352E3340
:1005B000640925352E3364090A0000009481214224
:1005C0000080214284812142A0812142B401224243
:1005D0000000224225640A0014000020B481214258
:1005E000B881214225640925640A0000B80122422D
:1005F000A4812142080002404C2401405400002004
:1006000000080140ADF8180004208DF81B0006A971
:10061000FE4800F0F9FD684602F03BFC6946FC48E4
:1006200002F026FC4FF47A3002904FF48050ADF87F
:100630000C000020ADF80E004FF48060ADF8100003
:100640000C20ADF812000020ADF8140002A9F0480B
:1006500002F099FB0121EE4802F021FC684602F00D
:1006600018FC6946EA4802F003FC07B000BD08B573
:100670000220ADF8000010208DF8030003208DF853
:1006800002006946E14800F0BFFD46F2E270ADF8B5
:10069000000010208DF8030003208DF80200694649
:1006A000DC4800F0B1FD4FF46040ADF800001020D0
:1006B0008DF8030003208DF802006946D64800F04B
:1006C000A3FD41F60100ADF8000004208DF8030001
:1006D00003208DF802006946CE4800F095FD08BD64
:1006E00010B50121042001F045F80121082001F096
:1006F00041F80121102001F03DF810BD1FB5FFF7B2
:10070000EFFFFFF7B4FFFFF72FFFFFF7BCFEFFF788
:100710007FFEC2480068C24AB0FBF2F1B1F1807FAF
:1007200000D31DE021F07F40401E4FF0E0225061D9
:1007300050170F22002807DA13071D0EB94B00F0DF
:100740000F04241F1D5503E013071C0EB64B1C5449
:1007500000BF00204FF0E02290610720106100BF31
:100760000121B24801F063FB0121B14801F0FDF81D
:1007700013E00020AF490860AF49C1F8B8014FF459
:100780007A70FFF7BDFC0120AA490860AA49C1F8A8
:10079000B8014FF47A70FFF7B3FCA848006801284D
:1007A000E7D00020A349086040F6B830FFF7A8FC66
:1007B0000020A149C1F8B8010120A149086018E052
:1007C000B4218020FFF7ADFC9E4800899D49C9886F
:1007D0009C4A92889B4B5B88CDE90032CDE90210A0
:1007E00098480388984802689848016898A002F0E1
:1007F00091FFE5E700B587B00121042000F0C7FFB5
:100800000121084600F0C3FF0121082000F0B2FFDB
:100810001E208DF8140000208DF8150001208DF8A1
:1008200016008DF8170005A800F025FC1C208DF897
:10083000040000208DF8050002208DF8060001203C
:100840008DF8070001A800F016FC8820ADF818000C
:1008500004208DF81B0003208DF81A0006A96D48AE
:1008600000F0D2FC0420ADF808000020ADF80A002A
:100870000120ADF80C000020ADF80E00ADF810001E
:1008800002A9794801F0E0FE02A94FF0804001F092
:10089000DBFE6021744801F08FFF60214FF0804043
:1008A00001F08AFF0421704802F0CEF90421080704
:1008B00002F0CAF980216C4802F0CFF98021C80506
:1008C00002F0CBF90121880701F03CFF01216648C5
:1008D00001F038FF01220421634801F04EFF01229C
:1008E0000421080701F049FF07B000BD10B500243E
:1008F000022001F0D5FAD0B101205C4908605C48C3
:10090000006808B9012000E00020594908604FF054
:10091000010001F0D8FA002407E0564830F814002E
:10092000484921F81400601CC4B2052CF5DD10BD47
:1009300010B504214C4802F0DFF910BD10B50421B8
:10094000080702F0D9F94FF0804002F0A8F94A49AF
:10095000088008460088A0B14FF0804002F09CF962
:10096000642148434449098890FBF1F043490880D9
:100970002A48006840490988B0FBF1F04049086006
:1009800004E000203D4908803D49086010BD2F4823
:100990000068401C2D490860704703B586B00020F0
:1009A0000590049003900598800040F2B6314843CA
:1009B0000799B0FBF1F0C0F57A70029032200190F7
:1009C0000598800040F2B631484307994843A0F5A6
:1009D0002F60009000BF01202A4908602A49C1F811
:1009E000A401144908604FF09600FFF789FB00202E
:1009F0002549C1F88401FA20FFF782FB01200D4947
:100A000008604FF09600FFF77BFB3FE000080140D5
:100A100000380140000C0140001001403C00002063
:100A200040420F0018ED00E000E400E00800024042
:100A30000024014084812142000022423081214271
:100A4000840121425E0000201800002014000020D4
:100A50002564092564092564092564092564092597
:100A600064092564090D0A00000800400000002008
:100A7000B8012242540000200C0000200E0000208B
:100A800010000020A0812142008021420020F9496D
:100A9000C1F8840137E0F8480068049005988000A8
:100AA0000599484340F2B63148430799B0FBF1F04D
:100AB000C0F57A700290F148006808B9012000E0A2
:100AC0000020EE490860EB48D0F8B80108B90120D1
:100AD00000E00020EA49086000BFE7480068049988
:100AE000A0EB01000390DDE902108842F5D3E54850
:100AF000006808B9012000E00020E249086005987C
:100B000000F10100059007990598B0EB910FC2D351
:100B10000798800805902AE0D74800680490D748D5
:100B2000006808B9012000E00020D4490860D148DD
:100B3000D0F8B80108B9012000E00020D0490860D1
:100B400000BFCD4800680499A0EB01000390019913
:100B500003988842F5D3CB48006808B9012000E02B
:100B60000020C8490860059800F101000590079829
:100B700000EB40000599B1EB900FCDD308B000BD5C
:100B800003B583B000200290019000900120BE497F
:100B90000860B849C1F8A401BC4908604FF4E1708D
:100BA000FFF7AEFA0020B349C1F8840129E0B2484A
:100BB00000680190B148006808B9012000E00020F9
:100BC000AE490860AB48D0F8B80108B9012000E090
:100BD0000020AB49086000BFA74800680199A0EB5E
:100BE0000100009000983228F6D3A648006808B9A2
:100BF000012000E00020A3490860029800F10100F4
:100C00000290049902988842D1D300209E4908603E
:100C10009849C1F8A40105B000BD03B584B0002017
:100C20000390029001900398800040F2B63148434F
:100C300005994843A0F52F60009001209349086072
:100C40004FF0FA00FFF75CFA00208A49C1F88401EE
:100C50009620FFF755FA01208C4908604FF0FA0002
:100C6000FFF74EFA0020894908604FF001008649DD
:100C700008608049C1F8A4014FF00000039029E00A
:100C80007D48006802907D48006808B9012000E0B6
:100C900000207A4908607748D0F8B80108B90120E7
:100CA00000E000207649086000BF734800680299A0
:100CB000A0EB0100019001983228F6D3714800683A
:100CC00008B9012000E000206E490860039800F197
:100CD0000100039005990398B0EB510FD0D305980C
:100CE00000EB40008008039035E00398800040F25C
:100CF000B63148430599B0FBF1F0A0F52F600090A4
:100D00005D48006802905D48006808B9012000E075
:100D100000205A4908605748D0F8B80108B90120A6
:100D200000E000205649086000BF5348006802995F
:100D3000A0EB01000190DDE900108842F5D3514895
:100D4000006808B9012000E000204E4908600398BF
:100D500000F101000390059903988842C5D3012052
:100D6000464908604349C1F8B80106B000BD03B563
:100D700087B00020069005900490039006988000AC
:100D800040F2B63148430499B0FBF1F0C0F57A70F7
:100D90000290322001900698800040F2B63148431C
:100DA00004994843A0F52F60009000BF0120384906
:100DB00008604FF000002F49C1F898014FF0010082
:100DC0003149086001F104010860304908604FF4BE
:100DD000AF70FFF795F900202649C1F88401C820BB
:100DE000FFF78EF901202349C1F884019620FFF70F
:100DF00087F9002025490860089800EB80004FEA39
:100E0000400004901F48006808B9012000E000205D
:100E10001C49086045E01848006805900698800065
:100E200040F2B63148430499B0FBF1F0C0F57A7056
:100E300002901248006808B9012000E000200F4924
:100E400008600C48D0F8B80108B9012000E0002083
:100E50000B49086000BF084800680599A0EB010035
:100E60000390DDE902108842F5D30648006888B98E
:100E7000012010E00080214214000020B4812142B2
:100E8000B8812142B4012242A081214284812142C1
:100E900094812142002044490860069800F1010035
:100EA000069004990698B0EB910FB4D3049880088B
:100EB00006902AE03D48006805903D48006808B962
:100EC000012000E000203A4908603A48D0F8B80113
:100ED00008B9012000E000203749086000BF33480E
:100EE00000680599A0EB01000390019903988842DE
:100EF000F5D32D48006808B9012000E000202A49F8
:100F00000860069800F101000690049800EB40008C
:100F10000699B1EB900FCDD3049800EB4000800808
:100F2000069035E00698800040F2B63148430499B7
:100F3000B0FBF1F0A0F52F6000901C480068059010
:100F40001B48006808B9012000E00020184908602B
:100F50001848D0F8B80108B9012000E0002016496F
:100F6000086000BF114800680599A0EB01000390DC
:100F7000009903988842F5D30B48006808B901200E
:100F800000E0002008490860069800F10100069082
:100F9000049906988842C5D300200849086005498D
:100FA000C1F8A40109B000BDB40122421400002020
:100FB000B481214200802142B8812142A081214296
:100FC000704700BFFEE700BFFEE700BFFEE700BFBF
:100FD000FEE770477047704770477047704770472B
:100FE0007047704770477047704770477047704749
:100FF0007047704770477047704770477047704739
:101000007047704770477047704770477047704728
:101010007047704770477047704770477047704718
:101020007047704770477047704770477047704708
:1010300070477047704770477047704770477047F8
:10104000704770477047704770470000014600BF07
:10105000704700BF044A128812F0400FFAD0C2B2A3
:10106000014B1B1D1A807047003801403149014374
:10107000314A1160704770B5002100230F22C478F7
:101080000CB32D4C246804F4E064C4F5E064210A38
:10109000C1F10403CA40447804FA03F1847814408F
:1010A00021430901254C0678A155047804F01F0559
:1010B0000124AC4005786D114FF0E02606EB850564
:1010C000C5F8004109E0047804F01F050124AC4094
:1010D0001B4D0678761145F8264070BD194A0A4026
:1010E0000243154B1B1F1A60704739B1124A121D7B
:1010F00012680243104B1B1D1A6006E00E4A121DB7
:10110000126882430C4B1B1D1A607047042808D1DB
:101110004FF0E021096941F004014FF0E022116134
:1011200007E04FF0E021096921F004014FF0E022CF
:10113000116170470000FA050CED00E000E400E0EA
:1011400080E100E080FFFF1F10B50446CA488442DA
:1011500008D10121042000F027FB0021042000F029
:1011600023FB46E0C548844208D10121082000F055
:101170001BFB0021082000F017FB3AE0C048844226
:1011800008D10121102000F00FFB0021102000F0F9
:101190000BFB2EE0BB48844208D10121202000F047
:1011A00003FB0021202000F0FFFA22E0B648844231
:1011B00008D10121402000F0F7FA0021402000F082
:1011C000F3FA16E0B148844208D10121802000F0F2
:1011D000EBFA0021802000F0E7FA0AE0AC488442F4
:1011E00007D10121801500F0DFFA0021A01500F0E1
:1011F000DBFA10BD10B50121084600F0D5FA002138
:10120000012000F0D1FA10BD2DE9F0410246002581
:101210000026002000230024002791F803C00CF0D2
:101220000F0591F803C01CF0100F03D091F802C015
:101230004CEA050591F800C0BCF1000F31D01468EC
:1012400000202BE04FF0010C0CFA00F3B1F800C0C5
:101250000CEA03069E4220D183004FF00F0C0CFADB
:1012600003F7BC4305FA03FC4CEA040491F803C0FD
:10127000BCF1280F06D14FF0010C0CFA00FCC2F8AB
:1012800014C00AE091F803C0BCF1480F05D14FF03B
:10129000010C0CFA00FCC2F810C0401C0828D1D385
:1012A0001460B1F800C0BCF1FF0F34DD54680020B9
:1012B0002EE000F1080C4FF0010808FA0CF3B1F829
:1012C00000C00CEA03069E4221D183004FF00F0CB0
:1012D0000CFA03F7BC4305FA03FC4CEA040491F84A
:1012E00003C0BCF1280F05D100F1080C08FA0CF876
:1012F000C2F8148091F803C0BCF1480F07D100F187
:10130000080C4FF0010808FA0CF8C2F81080401CD5
:101310000828CED35460BDE8F0814FF6FF710180FC
:10132000022181700421C170704702460020936839
:101330000B4201D0012000E0002070470146886880
:1013400080B2704702460020D3680B4201D00120D2
:1013500000E0002070470146C86880B27047016114
:101360007047416170470AB1016100E04161704717
:10137000C16070474FF480320A43826181618261AB
:1013800082698269704702460020424B18684FF616
:101390008073184040EA021008433E4B18607047C3
:1013A0003D49C8617047F0B50A460023002400217A
:1013B000002500F00046B6F1004F02D1354EF1692C
:1013C00001E0344E7168C0F3034583B200F4401667
:1013D000B6F5401F08D121F070612E4E766826F0D8
:1013E00070662C4F7E6012E000F48016B6F5801F08
:1013F00006D1032606FA05F4A14341F0706106E028
:10140000460D360103FA06F6B14341F0706122B190
:10141000460D360103FA06F6314300F00046B6F1F8
:10142000004F02D11B4EF16101E01A4E7160F0BD18
:1014300030B500228B071C0F0F2303FA04F2154B63
:1014400008338C1053F824309343124C08348D1019
:1014500044F8253023468C1053F824308C07240F91
:1014600000FA04F423430B4C08348D1044F8253063
:1014700030BD0A490860704700080140000C014077
:10148000001001400014014000180140001C014000
:10149000002001400000014000002042DC0020420A
:1014A000DD48006840F00100DB49086008464068FC
:1014B000DA490840D849486008460068D8490840D9
:1014C000D54908600846006820F480200860084676
:1014D000406820F4FE0048604FF41F0088607047A9
:1014E000CD49096821F48031CB4A11601146096861
:1014F00021F480211160B0F5803F03D0B0F5802F3A
:101500000ED106E0C449096841F48031C24A116035
:1015100007E0C149096841F4A021BF4A116000E019
:1015200000BF00BF704710B5014600220023002015
:101530004A11012A02D1B84C236806E0022A02D1DE
:10154000B54C236A01E0B44C636A01F01F02012428
:1015500094401C4201D0012000E0002010BD38B5AD
:10156000002000900024002500BF3120FFF7DBFFA2
:1015700005460098401C00900098B0F5A06F01D07F
:10158000002DF2D03120FFF7CEFF08B1012400E09A
:101590000024204638BD014600209F4A106820F0F4
:1015A000F80040EAC100106070479E49086070472B
:1015B00002460020984B586820F47C1042EA010350
:1015C0001843954B58607047964908667047014626
:1015D0000020914A506820F0030008435060704793
:1015E0008D48406800F00C007047014600208A4A90
:1015F000506820F0F000084350607047014600201A
:10160000854A506820F4E060084350607047014606
:101610000020814A506820F4605040EAC1005060C8
:10162000704729B17C4A527A02437B4B5A7204E0DC
:10163000794A527A8243784B5A7270477A490860E5
:10164000704701460020744A506820F44040084327
:10165000506070470021754A11706F4A82F820105F
:10166000012802D0042808D103E001216F4A11703B
:1016700004E005216D4A117000E000BF00BF704713
:101680006B49086070476449096A0143624A116204
:101690007047674944390860704730B5002100221F
:1016A000002400235C4D6D6805F00C0121B1042974
:1016B00005D0082923D105E05E4D056022E05D4D8F
:1016C00005601FE0544D6D6805F47012524D6D6851
:1016D00005F48034022505EB92421CB9564D554362
:1016E00005600BE04C4D6D6815F4003F03D0524D82
:1016F0005543056002E04F4D5543056002E04D4DF6
:10170000056000BF00BF444D6D6805F0F001090998
:101710004A4D6B5C0568DD4045603F4D6D6805F4E2
:10172000E061090A454D6B5C4568DD4085603A4DD6
:101730006D6805F46051C90A404D6B5C4568DD4039
:10174000C560354D6D6805F44041890B3C4D6B5CBF
:10175000C568B5FBF3F5056130BD29B12E4A526964
:1017600002432D4B5A6104E02B4A526982432A4BB3
:101770005A61704729B1284A92690243264B9A61FF
:1017800004E0254A92698243234B9A61704729B14C
:10179000214AD2690243204BDA6104E01E4AD26931
:1017A00082431D4BDA61704729B11B4AD26802435C
:1017B000194BDA6004E0184AD2688243164BDA60AB
:1017C000704729B1144A12690243134B1A6104E0AD
:1017D000114A12698243104B1A617047144940390B
:1017E000086070470F49C86470470B49C87170475B
:1017F0000948406A40F080700749486270470146D6
:101800000020054A92680A4201D0012000E0002031
:101810007047014988727047001002400000FFF8CD
:10182000FFFFF6FE00004242D80042422010024074
:101830008004424200127A0000093D002800002086
:101840003800002010B50446FA48844208D101212E
:101850004015FFF7A9FF00216015FFF7A5FF17E06E
:10186000F548844208D101210015FFF79DFF0021B2
:101870002015FFF799FF0BE0F048844208D10121C1
:10188000C803FFF791FF00214FF40040FFF78CFFE2
:1018900010BD30B50246002000235068E84C2040BF
:1018A0000D790C6844EA0524204350609068E54CAB
:1018B0002040D1E902542C434D7944EA45042043A9
:1018C0009060D06A20F470000C7C641EE4B2234364
:1018D00040EA0350D06230BD0021016001714171C6
:1018E0008160C16001210174704721B1826842F0BA
:1018F0000102826003E0826822F001028260704788
:1019000021B1826842F48072826003E0826822F42E
:1019100080728260704710B50023CBB21AB1446860
:101920001C43446002E044689C43446010BD8168ED
:1019300041F0080181607047014600208A6812F07A
:10194000080F01D0012000E000207047816841F0BD
:10195000040181607047014600208A6812F0040F7C
:1019600001D0012000E00020704721B1826842F4DC
:10197000A002826003E0826822F4A00282607047C5
:10198000014600208A6812F4800F01D0012000E097
:101990000020704710B50A4600210023416821F459
:1019A0006041531E41EA4331416010BD21B142689C
:1019B00042F40062426003E0426822F40062426046
:1019C0007047F0B504460D4600200021092D11DDB9
:1019D000E068A5F10A0606EB4607072606FA07F1B6
:1019E0008843A5F10A0606EB460603FA06F108430A
:1019F000E0600CE0206905EB4507072606FA07F1D1
:101A0000884305EB450603FA06F108432061072ADF
:101A10000FDA606B561E06EB86071F2606FA07F1E3
:101A20008843561E06EB860605FA06F108436063F6
:101A300022E00D2A0FDA206BD61F06EB86071F2641
:101A400006FA07F18843D61F06EB860605FA06F16B
:101A50000843206310E0E06AA2F10D0606EB86075A
:101A60001F2606FA07F18843A2F10D0606EB86064B
:101A700005FA06F10843E062F0BD21B1826842F444
:101A80008012826003E0826822F4801282607047D4
:101A90000146C86C80B2704766484C300068704799
:101AA00021B1426842F48062426003E0426822F45D
:101AB00080624260704721B1426842F480524260C5
:101AC00003E0426822F48052426070470A460021D7
:101AD000816821F4E04111438160704721B182683F
:101AE00042F40042826003E0826822F40042826095
:101AF000704721B1826842F40212826003E082687A
:101B000022F4021282607047014600208A6812F4B3
:101B1000001F01D0012000E000207047F0B504460E
:101B20001546002000220026092911DDE068A1F1F8
:101B30000A0707EB470C072707FA0CF29043A1F1BD
:101B40000A0707EB470703FA07F21043E0600CE0CF
:101B5000206901EB410C072707FA0CF2904301EBD7
:101B6000410703FA07F210432061A06BC0F301564E
:101B7000EF1C06F1010CA7EB0C0707EB870C1F27E6
:101B800007FA0CF29043EF1C06F1010CA7EB0C07CF
:101B900007EB870701FA07F21043A063F0BD10B509
:101BA0000A4600210023816B21F44011531E41EAB3
:101BB0000351816310BD08B5002300930090009B82
:101BC0000B440093009B1A6008BD08B50246002034
:101BD0000090009201F12800009B184400900098AA
:101BE000006880B208BD0A4600214168164B1940C2
:101BF0001143416070474162826270470A4600218A
:101C0000416821F01F0111434160704740B109490B
:101C10000831096841F40001064A0832116007E002
:101C200004490831096821F40001024A08321160B0
:101C3000704700000024014000280140003C0140A2
:101C4000FFFEF0FFFDF7F1FFFFFD3FFF0246002022
:101C500013680B4201D0012000E000207047CA4306
:101C60000260704770B502460020002300240B126A
:101C70005568CEB205EA060415681D4202D00CB1C3
:101C8000012000E0002070BD00220A12D34303604F
:101C90007047000001684FF6FE721140016000219C
:101CA000016041608160C1608C49884208D18B49E4
:101CB0000839496841F00F01884A083A51608AE0C2
:101CC00086491431884208D184490839496841F06D
:101CD000F001824A083A51607DE08049283188420B
:101CE00008D17E490839496841F470617B4A083A55
:101CF000516070E079493C31884208D17749083910
:101D0000496841F47041754A083A516063E073498B
:101D10005031884208D171490839496841F470212D
:101D20006E4A083A516056E06C496431884208D1E5
:101D30006A490839496841F47001684A083A5160B3
:101D400049E066497831884208D1644908394968D0
:101D500041F07061614A083A51603CE06049884254
:101D600006D1011F096841F00F01021F116032E026
:101D70005B491431884208D15949091F096841F06B
:101D8000F001574A121F116025E055492831884259
:101D900008D15349091F096841F47061504A121F64
:101DA000116018E04E493C31884208D14C49091F66
:101DB000096841F470414A4A121F11600BE048491A
:101DC0005031884207D14649091F096841F4702102
:101DD000434A121F1160704710B50022026847F68F
:101DE000F0739A430C6A8B6823430C6923434C6954
:101DF00023438C692343CC6923434C6A23438C6A75
:101E000023431A430260CB6843600B6883604B68CE
:101E1000C36010BD0021016041608160C16001614B
:101E200041618161C161016241628162704721B19A
:101E3000026842F00102026004E002684FF6FE739D
:101E40001A40026070471AB103680B43036002E056
:101E500003688B43036070474160704701464868E0
:101E600080B2704701460020002211F0805F03D04D
:101E70001B4B083B1A6802E0184B083B1A680A42E1
:101E800001D0012000E00020704710F0805F03D0F7
:101E90001349091F086002E010490839486070477B
:101EA00001460020002211F0805F03D00C4B083B5C
:101EB0001A6802E0094B083B1A680A4201D0012067
:101EC00000E00020704710F0805F03D00449091F34
:101ED000086002E001490839486070470800024084
:101EE0000804024010B50446FE48844208D101218E
:101EF000C014FFF759FC0021E014FFF755FCC4E0C3
:101F0000B4F1804F08D101210846FFF75AFC0021A7
:101F10000120FFF756FCB8E0F348844208D10121C4
:101F20000220FFF74EFC00210220FFF74AFCACE044
:101F3000EE48844208D101210420FFF742FC002131
:101F40000420FFF73EFCA0E0E948844208D10121CB
:101F50000820FFF736FC00210820FFF732FC94E050
:101F6000E448844208D101211020FFF72AFC002117
:101F70001020FFF726FC88E0DF48844208D10121C9
:101F80002020FFF71EFC00212020FFF71AFC7CE038
:101F9000DA48844208D101214014FFF705FC0021F2
:101FA0006014FFF701FC70E0D548844209D101219B
:101FB000C804FFF7F9FB00214FF40020FFF7F4FB02
:101FC00063E0D048844209D101210805FFF7ECFB0A
:101FD00000214FF48010FFF7E7FB56E0CA48844227
:101FE00009D101214805FFF7DFFB00214FF4001064
:101FF000FFF7DAFB49E0C548844208D101214020BF
:10200000FFF7DFFB00214020FFF7DBFB3DE0C0488E
:10201000844208D101218020FFF7D3FB00218020DA
:10202000FFF7CFFB31E0BB48844208D10121801586
:10203000FFF7C7FB0021A015FFF7C3FB25E0B6485B
:10204000844209D101210804FFF7AEFB00214FF4BF
:102050008030FFF7A9FB18E0B048844209D1012184
:102060004804FFF7A1FB00214FF40030FFF79CFB71
:102070000BE0AB48844208D101218804FFF794FBB0
:1020800000214FF48020FFF78FFB10BD0022028853
:10209000944B98420ED0994B98420BD0B0F1804FA0
:1020A00008D0914B984205D0904B984202D0904B6B
:1020B000984204D14FF68F731A404B881A438D4BC8
:1020C000984207D08C4B984204D04FF6FF431A40F9
:1020D000CB881A4302808B8883850B880385814BCC
:1020E00098420BD0854B984208D08B4B984205D034
:1020F0008A4B984202D08A4B984201D10B7A0386D0
:1021000001238382704770B5002400220023058CD0
:102110004FF6FE7635400584028C8388048B4FF69B
:102120008F752C40B51E2C400D882C43751E2A40FF
:102130000D892A434D882A436A4DA8420BD06F4D22
:10214000A84208D0744DA84205D0744DA84202D0D0
:10215000734DA84213D14FF6F7752A404D892A4393
:102160004FF6FB752A408D882A434FF6FF652B40BA
:102170004FF6FF552B408D892B43CD892B43838010
:102180000483CD888586028470BD70B5002400224A
:102190000023058C4FF6EF7635400584028C83884A
:1021A000048B48F6FF752C404FF6FF452C400D88F8
:1021B0004FF6FF7606EA05252C434FF6DF752A40D9
:1021C0000D8906EA05152A434D8806EA05152A43B6
:1021D000444DA84202D0494DA8421DD14FF67F750B
:1021E0002A404D894FF6FF7606EA05152A434FF639
:1021F000BF752A408D8806EA05152A434FF6FF353C
:102200002B404FF2FF752B408D8906EA85052B4345
:10221000CD8906EA85052B4383800483CD88058715
:10222000028470BD70B5002400220023058C4FF697
:10223000FF6635400584028C8388848B4FF68F754A
:102240002C404FF6FC752C400D882C434FF6FF5563
:102250002A400D894FF6FF7606EA05252A434D8868
:1022600006EA05252A431F4DA84202D0234DA84265
:102270001DD14FF2FF752A404D894FF6FF7606EAD1
:1022800005252A434FF6FF352A408D8806EA0525A5
:102290002A434EF6FF752B404DF6FF752B408D8976
:1022A00006EA05152B43CD8906EA05152B438380E5
:1022B0008483CD888587028470BD70B50022002399
:1022C0000024058C4EF6FF7635400584038C848807
:1022D000828B48F6FF752A404FF6FF452A400D884D
:1022E00020E00000002C01400004004000080040F5
:1022F000000C004000100040001400400034014079
:10230000004C0140005001400054014000180040C2
:10231000001C0040002000400040014000440140FB
:10232000004801404FF6FF7606EA05252A434DF6A0
:10233000FF752B400D8906EA05352B434D8806EACB
:1023400005352B43FA4DA84202D0FA4DA84208D1D8
:102350004BF6FF752C408D894FF6FF7606EA851502
:102360002C4384808283CD88A0F84050038470BDC4
:10237000828B4FF2FF331A408283828B4FF6FF73BA
:1023800003EA01231A4382837047F0B50C461546D1
:10239000002200210026078C4EF6FF7C07EA0C077E
:1023A0000784828B018C4FF6FF7707EA043640F6EC
:1023B000FF473A404FF6FF7707EA05273A434FF6C3
:1023C000FF7707EA03373A43D94FB8420ED0D94FC7
:1023D000B8420BD0B0F1804F08D0D74FB84205D0EB
:1023E000D64FB84202D0D64FB84206D14DF6FF774D
:1023F000394046F48057394305E047F6FF573940E6
:1024000044F48057394382830184F0BD828B4FF6B8
:10241000F3731A408283828B0A4382837047F0B53C
:102420000C461546002200210026078C4FF6FF6C53
:1024300007EA0C070784828B018C4FF6FF7707EAC7
:1024400004264FF60C773A404FF6FF7707EA03175A
:102450002F433A43B64FB8420ED0B64FB8420BD0D6
:10246000B0F1804F08D0B44FB84205D0B34FB84256
:1024700002D0B34FB84206D14FF6FF57394046F469
:102480008077394305E04FF2FF57394044F48077B5
:10249000394382830184F0BD028B4FF2FF331A402F
:1024A0000283028B4FF6FF7303EA01231A43028370
:1024B0007047F0B50C461546002200210026078C17
:1024C0004FF6EF7C07EA0C070784028B018C4FF66E
:1024D000FF7707EA041640F6FF473A404FF6FF77CA
:1024E00007EA03373A434FF6FF7707EA05273A43EF
:1024F0008F4FB8420ED08F4FB8420BD0B0F1804F03
:1025000008D08D4FB84205D08C4FB84202D08C4FC6
:10251000B84206D14FF6DF77394046F0100739430D
:1025200005E04FF65F77394044F0100739430283E6
:102530000184F0BD028B4FF6F3731A400283028BC5
:102540000A4302837047F0B50C461546002200216D
:10255000068C4FF6FE773E400684028B018C4FF6C8
:102560000C7632407E1C06EA03162E433243704E30
:10257000B0420ED06F4EB0420BD0B0F1804F08D0B9
:102580006D4EB04205D06D4EB04202D06C4EB0429E
:1025900006D14FF6FD76314044F00106314305E0A7
:1025A0004FF6F576314044F0010631430283018451
:1025B000F0BD70B505460C465D4885420ED05D48BD
:1025C00085420BD0B5F1804F08D05B48854205D0DD
:1025D0005A48854202D05A48854200D100E000BFE7
:1025E000208850B92389A28861882846FFF7ABFF6D
:1025F000E1882846FFF79EFF25E0208804280AD1BD
:102600002389A28861882846FFF753FFE18828467E
:10261000FFF742FF17E0208808280AD12389A28803
:1026200061882846FFF7FBFEE1882846FFF7EEFEAB
:1026300009E02389A28861882846FFF7A6FEE18881
:102640002846FFF795FE70BD2DE9F04105460C4682
:1026500000260127608808B9022600E00026A0882D
:10266000012801D1022700E001272088A0B9238991
:10267000A28861882846FFF766FFE1882846FFF7B1
:1026800059FF23893A4631462846FFF712FFE18871
:102690002846FFF701FF13E02389A28861882846B6
:1026A000FFF707FFE1882846FFF7F6FE23893A4641
:1026B00031462846FFF747FFE1882846FFF73AFFF3
:1026C000BDE8F0810A884B881A438B881A43CB886F
:1026D0001A430B891A434B891A438B891A43A0F872
:1026E000442070474FF6FF71818000210180C18036
:1026F0004180017270470021018041808180C1804A
:10270000018141818181C181704700210180418027
:10271000012181800021C180018170470021018059
:1027200041808180C18001814181818170470000A9
:10273000002C01400034014000040040000800402B
:10274000000C004021B1028842F00102028004E046
:1027500002884FF6FE731A400280704731B1B0F81C
:10276000442042F40042A0F8442005E0B0F84420A0
:10277000C2F30E02A0F8442070471AB183890B43BC
:10278000838102E083898B43838170478182704714
:1027900041EA0203A0F8483070471AB183890B431D
:1027A000838102E083898B438381704701894FF6DF
:1027B000F8721140018170470A46002101894FF6E5
:1027C0008F73194011430181704730B504460D469F
:1027D00029462046FFF7F0FF208940F007002081BE
:1027E00030BD2DE9F04104460D4616461F46602DCA
:1027F00006D13B46012231462046FFF75AFE05E04E
:102800003B46012231462046FFF79DFE29462046E1
:10281000FFF7D2FF208940F007002081BDE8F0815A
:1028200030B50C4600210189C9B24FF6FF7505EAA3
:102830000325154325432943018130BD2DE9F0418E
:1028400005460E4617469846002443463A4631460A
:102850002846FFF7E5FF2C894FF6F870044044F056
:1028600007044FF68F70044044F070042C81BDE8DB
:10287000F081F0B504460D4616461F463B463246EB
:1028800029462046FFF7CCFF208940F48040208174
:10289000F0BD0185828270470A46002101884FF60B
:1028A0008F731940114301807047F0B50C461546EF
:1028B0001E460021002200230189028B038C4FF663
:1028C000F877394021434FF6FC473A4040F2011770
:1028D0003A434FF6DD773B404FF6FF7707EA06179E
:1028E0002F433B43018102830384F0BD0A4600214C
:1028F000018B4FF68F7319401143018370470A46CD
:102900000021018B48F6FF7319404FF6FF7303EA6D
:1029100002231943018370470A460021818B4FF639
:102920008F7319401143818370470A460021818BC0
:1029300048F6FF7319404FF6FF7303EA0223194369
:102940008183704721B1028842F08002028004E056
:1029500002884FF67F731A400280704721B1828847
:1029600042F00402828004E082884FF6FB731A4032
:102970008280704721B1828842F00802828004E0A0
:1029800082884FF6F7731A408280704721B182889F
:1029900042F00102828004E082884FF6FE731A4002
:1029A000828070470A460021018B4FF6F773194069
:1029B0001143018370470A460021018B4FF2FF73D8
:1029C00019404FF6FF7303EA02231943018370474E
:1029D0000A460021818B4FF6F7731940114381831A
:1029E00070470A460021818B4FF2FF7319404FF662
:1029F000FF7303EA02231943818370470A460021CB
:102A0000018B4FF6FB7319401143018370470A464F
:102A10000021018B4FF6FF3319404FF6FF7303EA95
:102A200002231943018370470A460021818B4FF628
:102A3000FB7319401143818370470A460021818B43
:102A40004FF6FF3319404FF6FF7303EA0223194391
:102A5000818370470A460021018B4FF67F7319402E
:102A60001143018370470A460021018BC1F30E0117
:102A70004FF6FF7303EA02231943018370470A46A6
:102A80000021818B4FF67F7319401143818370477A
:102A90000A460021818BC1F30E014FF6FF7303EA52
:102AA00002231943818370470A460021018C4FF6A7
:102AB000FD7319401143018470470A460021018CBF
:102AC0004FF6F77319401143018470470A460021FD
:102AD000018C4FF6DF7319404FF6FF7303EA0213C0
:102AE0001943018470470A460021018C4FF67F7319
:102AF00019404FF6FF7303EA02131943018470472C
:102B00000A460021018C4FF6FF5319404FF6FF7320
:102B100003EA02231943018470470A460021018C0D
:102B20004FF2FF7319404FF6FF7303EA0223194374
:102B3000018470470A460021018C4DF6FF7319404D
:102B40004FF6FF7303EA023319430184704730B52F
:102B5000002301248C40A3B2048C9C430484048C85
:102B600002FA01F5ADB22C43048430BD30B5002328
:102B700004248C40A3B2048C9C430484048C02FA89
:102B800001F5ADB22C43048430BD70B5034600207E
:102B900000241846183001258D40ACB21D8CA54389
:102BA0001D8409B1082909D100EB6100056825F0F1
:102BB000700505600568154305600EE00D1FC5F33F
:102BC0004E052844056825F4E045056005684FF684
:102BD000FF7606EA02263543056070BD21B1028802
:102BE00042F00202028004E002884FF6FD731A40B0
:102BF0000280704721B1028842F00402028004E0A2
:102C000002884FF6FB731A400280704721B1828818
:102C100042F08002828004E082884FF67F731A407F
:102C20008280704702884FF6F7731A40028002884C
:102C30000A430280704782884FF68F731A40828061
:102C400082880A438280704702894FF6F8731A40DF
:102C5000028102890A430281704702894FF67F731D
:102C60001A40028102890A430281704781847047B9
:102C700081857047818670470187704781877047DB
:102C8000A0F84010704702884FF6FF431A400280B8
:102C900002880A43028070470146888E70470146C9
:102CA000088F70470146888F70470146B1F8400091
:102CB00070470146888C70470146088D7047024670
:102CC0000020138A0B4201D0012000E00020704751
:102CD000CA430282704730B5024600200023002418
:102CE000158A05EA0103958905EA010413B10CB1BF
:102CF000012000E0002030BDCA430282704700007E
:102D000010B50446FB48844209D101218803FEF72F
:102D10004BFD00214FF48040FEF746FD32E0F648BF
:102D2000844209D101214804FEF74BFD00214FF4F4
:102D30000030FEF746FD25E0F048844209D101212C
:102D40008804FEF73EFD00214FF48020FEF739FD98
:102D500018E0EB48844209D10121C804FEF731FD97
:102D600000214FF40020FEF72CFD0BE0E5488442E3
:102D700008D101210805FEF724FD00214FF4801041
:102D8000FEF71FFD10BD2DE9F04786B005460E4643
:102D90000024A24600BFA1460027B08900B100BFB1
:102DA0002F462C8A4CF6FF700440F08804432C8296
:102DB000AC894EF6F3100440B0883189084371891C
:102DC00008430443AC81AC8A4FF6FF400440B0890D
:102DD0000443AC8201A8FEF760FCC648874202D1DA
:102DE000DDF810A001E0DDF80CA0A88910F4004F78
:102DF00008D00AEBCA0000EB0A1031684900B0FBAA
:102E0000F1F807E00AEBCA0000EB0A10316889000C
:102E1000B0FBF1F86420B8FBF0F004012009642154
:102E200001FB1089A88910F4004F08D0322000EB74
:102E3000C900B0FBF1F000F00700044308E03220C5
:102E400000EB09106421B0FBF1F000F00F00044327
:102E50002C8106B0BDE8F0874FF4165101600021C7
:102E60008180C18001810C214181002181817047D5
:102E700010B502460020108A4FF2FF0318400B885D
:102E80004C8823438C882343CC88234318431082E7
:102E900010BD0021018041808180C180704721B137
:102EA000828942F40052828104E082894DF6FF73E8
:102EB0001A4082817047F0B50346002400260025A1
:102EC0000020A1F510676A3F00D100BF1846C1F38A
:102ED000421401F01F06012707FA06F5012C01D163
:102EE0000C3004E0022C01D1103000E014301AB193
:102EF00007682F43076002E00768AF430760F0BD33
:102F00001AB1838A0B43838202E0838A8B438382D4
:102F10007047028A4FF6F0731A400282028A0A430F
:102F20000282704782894FF2FF731A408281828940
:102F30000A438281704721B1828942F00202828174
:102F400004E082894FF6FD731A4082817047028A3D
:102F50004FF6DF731A400282028A0A4302827047E8
:102F600021B1028A42F48042028204E0028A4BF6D6
:102F7000FF731A4002827047C1F3080282807047D3
:102F800001468888C0F308007047818941F001013B
:102F900081817047028BD2B20283028B42EA012206
:102FA00002837047028B02F47F420283028B0A4342
:102FB0000283704721B1828A42F02002828204E0BB
:102FC000828A4FF6DF731A408282704721B1828A6B
:102FD00042F01002828204E0828A4FF6EF731A40B8
:102FE0008282704721B1828A42F00802828204E024
:102FF000828A4FF6F7731A408282704721B1828924
:1030000042F40042828103E08289C2F30E0282818F
:10301000704721B1828A42F40062828204E0828A8F
:103020004FF2FF731A4082827047828A4FF6FB7319
:103030001A408282828A0A438282704721B1828A40
:1030400042F00202828204E0828A4FF6FD731A4047
:103050008282704702460020B1F5007F00D100BF98
:1030600013880B4201D0012000E00020704701F4DA
:103070000072B2F5007F00D100BFCA4302807047E2
:1030800070B502460024002300250020A1F510663B
:103090006A3E00D100BFC1F3421501F01F030126B3
:1030A00006FA03F3012D02D19689334006E0022D82
:1030B00002D1168A334001E0968A33400C12012671
:1030C00006FA04F41688344013B10CB1012000E074
:1030D000002070BD10B500220023A1F510646A3CE9
:1030E00000D100BF0A1201249440A3B2DC43048043
:1030F00010BD00000038014000440040004800407E
:10310000004C0040005000400CB5002001900090A1
:103110006B48006840F480306949086000BF684827
:10312000006800F4003000900198401C0190009865
:1031300018B90198B0F5A06FF1D16148006810F49A
:10314000003F02D00120009001E000200090009894
:10315000012842D15B48006840F0100059490860DE
:103160000846006820F0030008600846006840F048
:10317000020008605248406851494860084640686B
:1031800048600846406840F48060486008464068EF
:1031900020F47C1048600846406840F4E81048601D
:1031A0000846006840F08070086000BF444800682E
:1031B00010F0007FFAD04248406820F003004049F8
:1031C00048600846406840F00200486000BF3C4844
:1031D000406800F00C000828F9D10CBD10B5FFF7CD
:1031E00093FF10BD10B53648006840F00100344927
:1031F000086008464068344908403149486008463C
:103200000068324908402E4908600846006820F4EA
:10321000802008600846406820F4FE0048604FF4B3
:103220001F008860FFF7DAFF4FF000602849086050
:1032300010BD10B5002100200022214B5B6803F077
:103240000C0121B1042906D0082928D107E0214B1F
:10325000214C236027E01F4B1F4C236023E0184BB9
:103260005B6803F47010164B5B6803F48032022332
:1032700003EB904022B9194B4343174C23600DE0F8
:103280000F4B5B6813F4003F04D0144B4343124CC4
:10329000236003E00F4B43430F4C236003E00D4BCF
:1032A0000D4C236000BF00BF054B5B68C3F30313E5
:1032B0000B4CE15C084B1B68CB40074C236010BDF6
:1032C00000100240002002400000FFF8FFFFF6FE61
:1032D00008ED00E000127A003C00002000093D00EB
:1032E000400000200648804706480047FEE7FEE70A
:1032F000FEE7FEE7FEE7FEE7FEE7FEE7FEE7FEE7A6
:10330000E5310008ED0000082DE9FE4F81EA0304D5
:1033100004F0004421F0004100944FF0000B23F032
:10332000004350EA010402D052EA030404D1002011
:10333000014603B0BDE8F08FC3F30A54C1F30A5548
:103340002C44A4F2F3340194A0FB0254C1F3130102
:1033500041F48011C3F3130343F4801301FB0244CF
:1033600000FB034E840A970A44EA815447EA8357D4
:10337000A4FB076802958D0A05FB07854FEA932C8D
:1033800004FB0C542705029D4FEA065847EA1637FE
:10339000B5EB08056EEB070C870E920E47EA811716
:1033A00042EA8312A7FB0201B6EB0B0164EB0004B7
:1033B0002B0D43EA0C335E1844EB1C50DA465146A1
:1033C000E7FB0201C5F313044FEA0B3343EA14533E
:1033D0004FEA0432019C43EA0603A4F10C04029470
:1033E000009CCDE900B400F0CFF8A2E72DE9F04D44
:1033F00081EA030404F0004B21F0004514464FF02D
:10340000000A23F0004150EA050220D054EA0102EC
:103410001DD0C5F30A570246C5F31303C1F31300C9
:10342000C1F30A5640F4801543F48013A7EB060855
:10343000101BD64608F2FD3873EB050002D308F1E5
:10344000010801E092185B41B8F1000F03DA002097
:103450000146BDE8F08D00204FF4801106468446F9
:103460000EE0171B73EB050705D3121B63EB050377
:1034700006434CEA010C49084FEA300092185B41C0
:1034800050EA0107EDD152EA030012D082EA0400AB
:1034900083EA0501084303D100224FF0004308E00E
:1034A000101BAB4102D20122002302E06FF00102A7
:1034B00053101AEB06004CEB085110EB0A0041EBDD
:1034C0000B01BDE8F04D00F052B80EB540F23341AB
:1034D00002910021CDE900110A460B4600F054F894
:1034E00003B000BD70B5C1F30A5201F000450024DD
:1034F000C1F3130140F2FF3341F480119A4201DA23
:10350000002070BD40F233439A42A2F2334203DC02
:10351000524200F01CF800E090402C43F1D04042B1
:1035200070BD30B50B46014600202022012409E081
:1035300021FA02F59D4205D303FA02F5491B04FA6C
:1035400002F52844151EA2F10102F1DC30BD202A4B
:1035500004DB203A21FA02F00021704721FA02F33D
:10356000D040C2F12002914008431946704710B57F
:10357000002B08DA401C41F1000192185B411A430C
:1035800001D120F0010010BD2DE9F04D92469B467F
:1035900011B1B1FA81F202E0B0FA80F22032904625
:1035A00000F0A8F804460F4640EA0A0041EA0B0181
:1035B00053465A46084303D120463946BDE8F08DAC
:1035C000114653EA010015D0C8F140025046FFF7FA
:1035D000BEFF05460E4650465946424600F08AF860
:1035E000084301D0012000E00020054346EAE076D0
:1035F0002C4337430A984FEA4453A0EB08004FEAA4
:10360000D4240A304FF0000244EA47544FEAD72549
:1036100002D500200146D1E7010510196941DDE915
:10362000084500196941BDE8F04DA0E72DE9F04DCE
:1036300000231A461B1A8A4103DB00200146BDE81D
:10364000F08DC1F30A52C1F3130141F480154FF01C
:10365000000BD10702D100186D41521E002704460D
:1036600040F2FF11384601EB620A3E4680460246B0
:1036700000204FF48011FFF76AFFC2197141BB1897
:1036800046EB0100B4EB030C75EB000C04D3E41A19
:1036900065EB000517460E46241908F101006D413F
:1036A00080463428E3DDF91946EB0600091BA841E2
:1036B00003D24FF0FF32134601E0002213461BEB0A
:1036C000070046EB0A51BDE8F04DFFF750BF000080
:1036D000064C074D06E0E06840F0010394E807005F
:1036E00098471034AC42F6D3FCF704FDF83A0008D2
:1036F000183B0008202A04DB203A00FA02F10020DF
:1037000070479140C2F1200320FA03F3194390401F
:10371000704700000FB4054B10B503A9044A029886
:1037200000F01EF810BC5DF814FB000053100008F8
:103730002400002002E008C8121F08C1002AFAD1A4
:1037400070477047002001E001C1121F002AFBD121
:1037500070470000014908607047000050000020D9
:103760002DE9FF4F8BB088460546002667E12528E6
:103770007AD100246D1CB649A146A24601222B78BD
:10378000203B02FA03F0084202D004436D1CF6E726
:1037900028782A2810D06FF02F022878A0F1300165
:1037A000092915D809EB890102EB410144F0020413
:1037B00000EB01096D1CF0E758F8049BB9F1000F0C
:1037C00003DA44F40054C9F1000944F002046D1C0A
:1037D00028782E2817D115F8010F44F004042A2860
:1037E0000ED06FF02F022878A0F1300109290AD8F5
:1037F0000AEB8A0102EB410100EB010A6D1CF2E7C2
:1038000058F804AB6D1C28786C280FD006DC4C28C7
:1038100017D068280DD06A2814D104E0742810D07D
:103820007A280FD10DE044F400140AE044F4801427
:1038300001E044F440146978814202D16D1C04F522
:1038400080146D1C2878692866D007DC002876D0A3
:10385000632828D0642807D15EE005E06E2808D0F0
:1038600073282AD075287AD0DDE90D129047761C8E
:10387000E4E0C4F30250022809D003280DD0D8F8A0
:10388000001004280DD00E6008F10408D6E0D8F826
:103890000010F217C1E90062F6E7D8F800100E80B8
:1038A000F2E70E70F0E718F8041B8DF80010002006
:1038B0008DF80100EB46012003E058F804BB4FF0FF
:1038C000FF3061074FF0000701D40AE07F1C574525
:1038D0000DDA8742FADB1BF807100029F6D106E063
:1038E0007F1C8742FCDB1BF807100029F8D1DDE9BB
:1038F0000D23A9EB07008146214600F0BEF83044B5
:10390000C61904E0DDE90D121BF8010B90477F1E7C
:10391000F8D2214648468CE058F8040BC4F3025113
:103920004FF00A0B032900D100B2042900D140B2A4
:10393000002806DAC0F100004FF02D0104E082E01B
:103940000DE0210504D52B218DF82410012103E081
:10395000E10710D02021F7E708AF089114E058F8EC
:10396000040BC4F302514FF00A0B032900D180B2BB
:10397000042900D1C0B20021EEE75946FFF7D1FD7E
:1039800001F1300107F8011D0028F6D1ADEB070069
:1039900000F1200B600702D524F4803401E04FF0E1
:1039A000010ADA4502DDAAEB0B0000E000208246A6
:1039B00000EB0B0108980144A9EB01000A90E00319
:1039C00006D4DDE90D2321460A9800F056F8064496
:1039D000002008E009A911F80900DDE90D1290475F
:1039E000761C09F10100089981468842F2DBE00368
:1039F0000CD5DDE90D2321460A9800F03EF8064477
:103A000004E0DDE90D1230209047761CBAF1000188
:103A1000AAF1010AF5DC05E0DDE90D1217F8010B4A
:103A20009047761CBBF10001ABF1010BF4DC0A9866
:103A30002146DDE90D2300F00DF806446D1C2878C1
:103A400000287FF494AE0FB03046BDE8F08F000040
:103A5000092801002DE9F041044600251E461746BD
:103A6000880405D406E039462020B04705F1010559
:103A7000641EF8D52846BDE8F0812DE9F0410446E2
:103A800000251E469046C80301D5302700E02027B8
:103A9000880405D506E041463846B04705F10105E2
:103AA000641EF8D52846BDE8F0812DE9F0410646B0
:103AB0000F46FFF7BBFD04000D4618BF0120284349
:103AC00020F00040C0F17F6000F1E040C00F0ED058
:103AD000301C18BF0120384320F00040C0F17F6047
:103AE00000F1E040C00F04BF0120FFF733FE204685
:103AF0002946BDE8F0810000183B000800000020C6
:103B000054000000343700086C3B000854000020CB
:103B10001C04000044370008000000000000000002
:103B20000000000000000000000000000000000095
:103B30000000000000000000000000000000000085
:103B40000000000001020304010203040607080943
:103B50000204060800A24A04000000000000000061
:0C3B600001020304060708090000000031
:04000005080000ED02
:00000001FF
