:030000000208B043
:0C08B000787FE4F6D8FD75811102087510
:0C08A300EF75F018A4FF7E55DEFEDFFCB0
:0108AF002226
:10087500E4F510F51153877F759850538EFB759CE1
:10088500FD438E01438E10D2ACD2AF758901F58A36
:0E089500758C10D28CD2A9D2AF85809080FBDA
:030023000208BC14
:0808BC00B2B4309902C2993276
:03000B00020800E8
:10080000C0E0C0F0C0D075D008758A00758C10B2F9
:10081000B47599A57F017E001208A3A285E4332553
:10082000E0FFA283E4334FFFA282E43325E025E01A
:100830004FFFA284E43375F008A44FFFA280E43395
:10084000C454F04FFFA287E433C43354E04FFFA2F7
:1008500081E43375F040A44FFFA286E43375F08045
:10086000A44FF5997F017E001208A375995AD0D044
:05087000D0F0D0E032E1
:00000001FF
